:03000000020ADA17
:0C0ADA00787FE4F6D8FD758146020B2100
:100CCD00013900C101013B00013A00C182043C0021
:060CDD00000000014101CE
:100C2700759850438E40538EFE53890F758BE87528
:0F0C37008DFFC2ABD2ACD28E43B71043B81022A0
:100CE400438E805389F0758ACD758CD4C28DD28C95
:030CF400D2A92260
:060D0C0000007F01DFFE84
:010D120022BE
:03002300020BD6F7
:100BD600C0E0C0D075D000C000C007309904C299EB
:100BE600C203309811C298AF39053974242FF8A67C
:0F0BF60099D201753B00D007D000D0D0D0E032AB
:080D04002003FD8F99D20322A8
:100BA5008B198A1A891BAF051DEF3395E0FED3EF2C
:100BB5009400EE648094804017AB19051BE51BAAD1
:100BC5001A7002051A14F9120B66FF120D0480D66D
:010BD50022FD
:03000B00020C469E
:100C4600C0E0C0F0C0D0053B053AE53A75F0328405
:0F0C5600E5F07004F53AD200D0D0D0F0D0E03203
:03001300020D13C8
:060D1300300202D204329E
:100C0500EFFD3395E0FCED64014C700943B10843F9
:100C1500B208D2B322ED4C7008C2B353B1F743B258
:020C25000822A3
:0D0CF700E4F5C7F5C5F5C675C380F5C42248
:100C650075C78075F50C75C5018FC4EEFF8FC3750B
:0B0C7500C65A75C6A500AFC2020CF7FE
:100C800075C78075F50C75C5028FC4EEFF8FC38DD7
:0B0C9000C275C65A75C6A500020CF71D
:100C9B0075C78075F50C75C5038FC4EEFF8FC375D3
:090CAB00C65A75C6A500020CF73B
:040800008D19AA079D
:10080400E4F51DF51CF51BF51AEA3395E04F70501D
:10081400FBEBFF3395E0FEC3EF941BEE6480948002
:100824005031D2B200A2B3E433451DF51DE51CF5E9
:100834001CE51BF51BE51AF51AAF1DAE1CAD1BFC20
:100844007801120B928F1D8E1C8D1B8C1AC2B20064
:100854000B80BEAF1DAE1CAD1BAC1A780502095649
:10086400E4FBEBFF3395E0FEC3EF941DEE6480944C
:10087400805031D2B200A2B3E433451DF51DE51C0E
:10088400F51CE51BF51BE51AF51AAF1DAE1CAD1BD7
:10089400FC7801120B928F1D8E1C8D1B8C1AC2B218
:1008A400000B80BEAF1DAE1CAD1BAC1A7805120B3D
:1008B4007F8F1D8E1C8D1B8C1AEAFF3395E0FEEF93
:1008C40064014E700479658008EF64024E70027909
:1008D40056E4FF120C057B06EB3395E0C364809469
:1008E400804016D2B200A803E9088002C313D8FCE2
:1008F4001392B3C2B2001B80DF7F01120C05D2B287
:10090400120D0CC2B200EAFF3395E0FEEF64014E13
:100914007043FF120C057B07EB3395E0C3648094AE
:10092400804018D2B200A803E519088003A2E71397
:10093400D8FB1392B3C2B2001B80DDD2B2120D0CED
:10094400C2B2007F01120C05AF1DAE1CAD1BAC1A68
:100954007808020B92AF02EF3395E0FEEF64024E8B
:10096400704E7B07EB3395E0C3648094804031D2B2
:10097400B200A2B3E433451DF51DE51CF51CE51BCF
:10098400F51BE51AF51AAF1DAE1CAD1BFC78011260
:100994000B928F1D8E1C8D1B8C1AC2B2001B80C43F
:1009A400D2B2120D0CC2B200AF1DAE1CAD1BAC1AFC
:0109B4002220
:100CB400C2B253B1FB43B20443B10843B208D2AA4F
:090CC400D28A53C9CF53CACF22D2
:1009B500750800750900750A00120CB4120C27128F
:0709C5000CE4D2AF30043D49
:1009CC00E4F518F517F516F515C204C202AF41EFA0
:1009DC003395E0FEEF64014E7005FD7F028011AF90
:1009EC0041EF3395E0FEEF64024E700FAD257F01B1
:0D09FC001208008F3F8E3E8D3D8C3CD202D4
:100A09003001BDC3E53B94057480948040B2C201B6
:100A1900E4F539E52424FE601814601A14602714DB
:100A2900604C147003020AAF24057094754101806B
:100A39008F754102808A7BFF7A1F79F98B088A09B1
:100A4900890A7D07805AE4F540AF40EF3395E0FE0F
:100A5900C3EF940AEE6480948040030209C9E42F2D
:100A6900FFEE3404FEAD40120C80054080DBE4F556
:100A790040AF40EF3395E0FEC3EF940AEE648094F3
:100A8900805015E42FFFEE3404FE120C65740B251B
:100A990040F8A607054080D97B007A00790B7D0ACA
:100AA900120BA50209C9E4FFFE120C9BE4F540AF45
:100AB90040EF3395E0FEC3EF9408EE6480948040E4
:100AC900030209C9EF7F0025E0FE120C9B05408057
:010AD900DE3E
:100AE6000209B5E493A3F8E493A34003F68001F268
:100AF60008DFF48029E493A3F85407240CC8C33311
:100B0600C4540F4420C8834004F456800146F6DFDF
:100B1600E4800B0102040810204080900CCDE47E96
:100B2600019360BCA3FF543F30E509541FFEE493D4
:100B3600A360010ECF54C025E060A840B8E493A39B
:100B4600FAE493A3F8E493A3C8C582C8CAC583CAC6
:100B5600F0A3C8C582C8CAC583CADFE9DEE780BE7E
:010CE3000010
:100B6600BB010689828A83E0225002E722BBFE028D
:090B7600E32289828A83E49322C0
:100B7F00E8600FECC313FCED13FDEE13FEEF13FF54
:030B8F00D8F12278
:100B9200E8600FEFC333FFEE33FEED33FDEC33FCC1
:030BA200D8F12265
:00000001FF
