:030000000209B53D
:0C09B500787FE4F6D8FD7581460209FC4D
:100BD500013900C101013B00013A00C182043C001A
:060BE500000000014101C7
:100B7E00759850438E40538EFE53890F758BE875D2
:0F0B8E008DFFC2ABD2ACD28E43B71043B810224A
:100BEC00438E805389F0758ACD758CD4C28DD28C8E
:030BFC00D2A92259
:060C070000007F01DFFE8A
:010C0D0022C4
:03002300020B2DA0
:100B2D00C0E0C0D075D000C000C007309904C29994
:100B3D00C203309811C298AF39053974242FF8A625
:0F0B4D0099D201753B00D007D000D0D0D0E03254
:080BFF002003FD8F99D20322AF
:100AFC008B0F8A108911AF051DEF3395E0FED3EFF4
:100B0C009400EE648094804017AB0F0511E511AA98
:100B1C00107002051014F9120ABDFF120BFF80D6DB
:010B2C0022A6
:03000B00020B9D48
:100B9D00C0E0C0F0C0D0053B053AE53A75F03284AF
:0F0BAD00E5F07004F53AD200D0D0D0F0D0E032AD
:03001300020C0ECE
:060C0E00300202D20432A4
:100B5C00EFFD3395E0FCED64014C700943B10843A3
:100B6C00B208D2B322ED4C7008C2B353B1F743B202
:020B7C0008224D
:040800008D0FAA07A7
:10080400E4F513F512F511F510EA3395E04F705045
:10081400FBEBFF3395E0FEC3EF941BEE6480948002
:100824005031D2B200A2B3E4334513F513E512F507
:1008340012E511F511E510F510AF13AE12AD11FC70
:100844007801120AE98F138E128D118C10C2B20036
:100854000B80BEAF13AE12AD11AC10780502095671
:10086400E4FBEBFF3395E0FEC3EF941DEE6480944C
:10087400805031D2B200A2B3E4334513F513E5122C
:10088400F512E511F511E510F510AF13AE12AD1127
:10089400FC7801120AE98F138E128D118C10C2B2EA
:1008A400000B80BEAF13AE12AD11AC107805120A66
:1008B400D68F138E128D118C10EAFF3395E0FEEF64
:1008C40064014E700479658008EF64024E70027909
:1008D40056E4FF120B5C7B06EB3395E0C364809413
:1008E400804016D2B200A803E9088002C313D8FCE2
:1008F4001392B3C2B2001B80DF7F01120B5CD2B231
:10090400120C07C2B200EAFF3395E0FEEF64014E19
:100914007043FF120B5C7B07EB3395E0C364809458
:10092400804018D2B200A803E50F088003A2E713A1
:10093400D8FB1392B3C2B2001B80DDD2B2120C07F3
:10094400C2B2007F01120B5CAF13AE12AD11AC103A
:100954007808020AE9AF02EF3395E0FEEF64024E35
:10096400704E7B07EB3395E0C3648094804031D2B2
:10097400B200A2B3E4334513F513E512F512E51101
:10098400F511E510F510AF13AE12AD11FC7801129C
:100994000AE98F138E128D118C10C2B2001B80C411
:1009A400D2B2120C07C2B200AF13AE12AD11AC102A
:0109B4002220
:100BBC00C2B253B1FB43B20443B10843B208D2AA48
:090BCC00D28A53C9CF53CACF22CB
:100A4100750800750900750A00120BBC120B7E12A5
:070A51000BECD2AF30041DD5
:100A5800E4F50EF50DF50CF50BC204C202FD7F029C
:0D0A68001208008F3F8E3E8D3D8C3CD20267
:100A75003001DDC3E53B94057480948040D2C2010A
:100A8500E4F539E52424FE6017146019240270C0CA
:100A95007541017B007A00793C7D04120AFC80B027
:100AA50075410280AB7BFF7A1F79F98B088A09892A
:080AB5000A7D07120AFC80987B
:1009C100020A41E493A3F8E493A34003F68001F201
:1009D10008DFF48029E493A3F85407240CC8C33337
:1009E100C4540F4420C8834004F456800146F6DF06
:1009F100E4800B0102040810204080900BD5E47EB6
:100A0100019360BCA3FF543F30E509541FFEE493FA
:100A1100A360010ECF54C025E060A840B8E493A3C1
:100A2100FAE493A3F8E493A3C8C582C8CAC583CAEC
:100A3100F0A3C8C582C8CAC583CADFE9DEE780BEA4
:010BEB000009
:100ABD00BB010689828A83E0225002E722BBFE0237
:090ACD00E32289828A83E493226A
:100AD600E8600FECC313FCED13FDEE13FEEF13FFFE
:030AE600D8F12222
:100AE900E8600FEFC333FFEE33FEED33FDEC33FC6B
:030AF900D8F1220F
:00000001FF
