:030000000209A949
:0C09A900787FE4F6D8FD7581610209F04A
:100B8900012200012300015B00012400C1810457F7
:040B99000000000058
:100B3200759850438E40538EFE53890F758BE8751E
:0F0B42008DFFC2ABD2ACD28E43B71043B8102296
:100B9E00438E805389F0758ACD758CD4C28DD28CDC
:030BAE00D2A922A7
:060BB90000007F01DFFED9
:010BBF002213
:03002300020AE2EC
:100AE200C0E0C0D075D000C000C007309904C299E0
:100AF200C202309812C298AF22052274252FF8A69E
:100B020099752301755B00D007D000D0D0D0E032B8
:080BB1002002FD8F99D20222FF
:100AB1008B0C8A0D890EAF051DEF3395E0FED3EF48
:100AC1009400EE648094804017AB0C050EE50EAAED
:100AD1000D7002050D14F9120A35FF120BB180D603
:010AE10022F2
:03000B00020B5194
:100B5100C0E0C0F0C0D0055B0524E52475F0328407
:0F0B6100E5F07004F524D200D0D0D0F0D0E0320F
:03001300020BC716
:060BC700300102D20332EE
:100B1200EFFD3395E0FCED64014C7007D2B343B1B5
:100B2200088009ED4C7008C2B353B1F743B20822F2
:040800008D0CAA07AA
:10080400E4F510F50FF50EF50DEA3395E04F705051
:10081400FBEBFF3395E0FEC3EF941BEE6480948002
:100824005031D2B200A2B3E4334510F510E50FF510
:100834000FE50EF50EE50DF50DAF10AE0FAD0EFC88
:100844007801120A618F108E0F8D0E8C0DC2B200CA
:100854000B80BEAF10AE0FAD0EAC0D780502094C87
:10086400E4FBEBFF3395E0FEC3EF941DEE6480944C
:10087400805031D2B200A2B3E4334510F510E50F35
:10088400F50FE50EF50EE50DF50DAF10AE0FAD0E3F
:10089400FC7801120A618F108E0F8D0E8C0DC2B27E
:1008A400000B80BEAF10AE0FAD0EAC0D7805120A72
:1008B4004E8F108E0F8D0E8C0DEAFF3395E0FEEFF8
:1008C40064014E700479658008EF64024E70027909
:1008D40056E4FF120B127B07EB3395E0C36480945C
:1008E400804016D2B200A803E9088002C313D8FCE2
:1008F4001392B3C2B2001B80DF7F01120B12EAFF16
:100904003395E0FEEF64014E7041FF120B127B073A
:10091400EB3395E0C3648094804018D2B200A803FE
:10092400E50C088003A2E713D8FB1392B3C2B2000C
:100934001B80DDD2B200C2B2007F01120B12AF10D5
:10094400AE0FAD0EAC0D7808020A61AF02EF33951D
:10095400E0FEEF64024E704C7B07EB3395E0C3641A
:100964008094804031D2B200A2B3E4334510F51034
:10097400E50FF50FE50EF50EE50DF50DAF10AE0F15
:10098400AD0EFC7801120A618F108E0F8D0E8C0D46
:10099400C2B2001B80C4D2B200C2B200AF10AE0F0C
:0409A400AD0EAC0DDB
:0109A800222C
:060BC00000007F47DFFE8C
:010BC600220C
:100B7000C2B253B1FB43B20443B10843B208D2AA94
:090B8000D28A53C9CF53CACF2217
:0E0A7400120B70120B32120B9ED2AF30032801
:100A8200E4F50BF50AF509F508C203C201FD7F0280
:100A92001208008F0B8E0A8D098C087B007A007970
:080AA200087D04120AB1D20123
:070AAA003000D2C20080CE33
:1009B500020A74E493A3F8E493A34003F68001F2DA
:1009C50008DFF48029E493A3F85407240CC8C33343
:1009D500C4540F4420C8834004F456800146F6DF12
:1009E500E4800B0102040810204080900B89E47E0E
:1009F500019360BCA3FF543F30E509541FFEE49307
:100A0500A360010ECF54C025E060A840B8E493A3CD
:100A1500FAE493A3F8E493A3C8C582C8CAC583CAF8
:100A2500F0A3C8C582C8CAC583CADFE9DEE780BEB0
:010B9D000057
:100A3500BB010689828A83E0225002E722BBFE02BF
:090A4500E32289828A83E49322F2
:100A4E00E8600FECC313FCED13FDEE13FEEF13FF86
:030A5E00D8F122AA
:100A6100E8600FEFC333FFEE33FEED33FDEC33FCF3
:030A7100D8F12297
:00000001FF
