:03000000020DA648
:0C0DA600787FE4F6D8FD758143020DED66
:100FC200013600C101013800013700C18204390035
:060FD200000000013E01D9
:100F1C00759850438E40538EFE53890F758BE87530
:0F0F2C008DFFC2ABD2ACD28E43B71043B81022A8
:100FD900438E805389F0758ACD758CD4C28DD28C9D
:030FE900D2A92268
:0610010000007F01DFFE8C
:0110070022C6
:03002300020E3298
:100E3200C0E0C083C082C0D075D000C001C002C073
:100E420003C006C007309904C299C20330981CC27D
:100E520098AF3605367E007B0074212FF9EE340000
:100E6200FAE599120D19D201753800D007D006D0D3
:0E0E720003D002D001D0D0D082D083D0E032A5
:080FF9002003FD8F99D20322B1
:100EC9008B198A1A891BAF051DEF3395E0FED3EF05
:100ED9009400EE648094804017AB19051BE51BAAAA
:100EE9001A7002051A14F9120D00FF120FF980D6B3
:010EF90022D6
:03000B00020F3BA6
:100F3B00C0E0C0F0C0D005380537E53775F0328416
:0F0F4B00E5F07004F537D200D0D0D0F0D0E0320E
:03001300021008D0
:06100800300202D20432A6
:100EFA00EFFD3395E0FCED64014C700943B1084302
:100F0A00B208D2B322ED4C7008C2B353B1F743B260
:020F1A000822AB
:0D0FEC00E4F5C7F5C5F5C675C380F5C42250
:100F5A0075C78075F50C75C5018FC4EEFF8FC37513
:0B0F6A00C65A75C6A500AFC2020FEC0E
:100F750075C78075F50C75C5028FC4EEFF8FC38DDF
:0B0F8500C275C65A75C6A500020FEC2D
:100F900075C78075F50C75C5038FC4EEFF8FC375DB
:090FA000C65A75C6A500020FEC4B
:040A00008D19AA079B
:100A0400E4F51DF51CF51BF51AEA3395E04F70501B
:100A1400FBEBFF3395E0FEC3EF941BEE6480948000
:100A24005031D2B200A2B3E433451DF51DE51CF5E7
:100A34001CE51BF51BE51AF51AAF1DAE1CAD1BFC1E
:100A44007801120D938F1D8E1C8D1B8C1AC2B2005F
:100A54000B80BEAF1DAE1CAD1BAC1A7805020B5645
:100A6400E4FBEBFF3395E0FEC3EF941DEE6480944A
:100A7400805031D2B200A2B3E433451DF51DE51C0C
:100A8400F51CE51BF51BE51AF51AAF1DAE1CAD1BD5
:100A9400FC7801120D938F1D8E1C8D1B8C1AC2B213
:100AA400000B80BEAF1DAE1CAD1BAC1A7805120D39
:100AB400808F1D8E1C8D1B8C1AEAFF3395E0FEEF90
:100AC40064014E700479658008EF64024E70027907
:100AD40056E4FF120EFA7B06EB3395E0C364809470
:100AE400804016D2B200A803E9088002C313D8FCE0
:100AF4001392B3C2B2001B80DF7F01120EFAD2B28E
:100B0400121001C2B200EAFF3395E0FEEF64014E19
:100B14007043FF120EFA7B07EB3395E0C3648094B5
:100B2400804018D2B200A803E519088003A2E71395
:100B3400D8FB1392B3C2B2001B80DDD2B2121001F3
:100B4400C2B2007F01120EFAAF1DAE1CAD1BAC1A6F
:100B54007808020D93AF02EF3395E0FEEF64024E86
:100B6400704E7B07EB3395E0C3648094804031D2B0
:100B7400B200A2B3E433451DF51DE51CF51CE51BCD
:100B8400F51BE51AF51AAF1DAE1CAD1BFC7801125E
:100B94000D938F1D8E1C8D1B8C1AC2B2001B80C43A
:100BA400D2B2121001C2B200AF1DAE1CAD1BAC1A02
:010BB400221E
:100FA900C2B253B1FB43B20443B10843B208D2AA57
:090FB900D28A53C9CF53CACF22DA
:0E0BB500120FA9120F1C120FD9D2AF30043D3F
:100BC300E4F515F514F513F512C204C202AF3EEFB6
:100BD3003395E0FEEF64014E7005FD7F028011AF97
:100BE3003EEF3395E0FEEF64024E700FAD227F01BE
:0D0BF300120A008F3C8E3B8D3A8C39D202E5
:0E0C00003001BDC3E53894057480948040B285
:100C0E00751200751300751421E52114B407004008
:100C1E0003020CF8900C3075F003A4C58325F0C5C3
:100C2E008373020C45020C4B020C51020C5B020C3E
:100C3E0083020CBA020CDC753E01020CF8753E0202
:100C4E00020CF87BFF7A1F79F97D07805AE4F53D97
:100C5E00AF3DEF3395E0FEC3EF940AEE64809480CF
:100C6E004003020CF8E42FFFEE3404FEAD3D120FEC
:100C7E0075053D80DBE4F53DAF3DEF3395E0FEC3FA
:100C8E00EF940AEE648094805015E42FFFEE340446
:100C9E00FE120F5A7408253DF8A607053D80D97B34
:100CAE00007A0079087D0A120EC9803EE4F53DAF48
:100CBE003DEF3395E0FEC3EF9408EE6480948050D0
:0E0CCE0029EF7F0025E0FE120F90053D80E12A
:100CDC007515008523167BFF7A1F79F97D07120E97
:0C0CEC0080AC15AD16120D2B8E178F1862
:050CF800C201E4F53625
:030CFD00020BC027
:1008000000C1814001C0804101C0804100C18140E0
:1008100001C0804100C1814000C1814001C08041D0
:1008200001C0804100C1814000C1814001C08041C0
:1008300000C1814001C0804101C0804100C18140B0
:1008400001C0804100C1814000C1814001C08041A0
:1008500000C1814001C0804101C0804100C1814090
:1008600000C1814001C0804101C0804100C1814080
:1008700001C0804100C1814000C1814001C0804170
:1008800001C0804100C1814000C1814001C0804160
:1008900000C1814001C0804101C0804100C1814050
:1008A00000C1814001C0804101C0804100C1814040
:1008B00001C0804100C1814000C1814001C0804130
:1008C00000C1814001C0804101C0804100C1814020
:1008D00001C0804100C1814000C1814001C0804110
:1008E00001C0804100C1814000C1814001C0804100
:1008F00000C1814001C0804101C0804100C18140F0
:1009000000C0C101C30302C2C60607C705C5C404AF
:10091000CC0C0DCD0FCFCE0E0ACACB0BC90908C81F
:10092000D81819D91BDBDA1A1EDEDF1FDD1D1CDC0F
:1009300014D4D515D71716D6D21213D311D1D0107F
:10094000F03031F133F3F23236F6F737F53534F46F
:100950003CFCFD3DFF3F3EFEFA3A3BFB39F9F838DF
:1009600028E8E929EB2B2AEAEE2E2FEF2DEDEC2CCF
:10097000E42425E527E7E62622E2E323E12120E03F
:10098000A06061A163A3A26266A6A767A56564A42F
:100990006CACAD6DAF6F6EAEAA6A6BAB69A9A8689F
:1009A00078B8B979BB7B7ABABE7E7FBF7DBDBC7C8F
:1009B000B47475B577B7B67672B2B373B17170B0FF
:1009C00050909151935352929656579755959454EF
:1009D0009C5C5D9D5F9F9E5E5A9A9B5B995958985F
:1009E000884849894B8B8A4A4E8E8F4F8D4D4C8C4F
:1009F00044848545874746868242438341818040BF
:080E80008B198A1A891B8D1CD5
:100E88007FFF7DFFAE1C151CEE6031AB19051BE51D
:100E98001BAA1A7002051A14F9120D006FFB7A00CA
:100EA8002400F582EA3408F583E4936DFF74002B7F
:100EB800F582EA3409F583E493FD80C8EFFEEDFF7F
:010EC8002207
:100DB200020BB5E493A3F8E493A34003F68001F297
:100DC20008DFF48029E493A3F85407240CC8C33342
:100DD200C4540F4420C8834004F456800146F6DF11
:100DE200E4800B0102040810204080900FC2E47ED0
:100DF200019360BCA3FF543F30E509541FFEE49306
:100E0200A360010ECF54C025E060A840B8E493A3CC
:100E1200FAE493A3F8E493A3C8C582C8CAC583CAF7
:100E2200F0A3C8C582C8CAC583CADFE9DEE780BEAF
:010FD8000018
:100D0000BB010689828A83E0225002E722BBFE02F1
:090D1000E32289828A83E4932224
:100D1900BB010689828A83F0225002F722BBFE01B9
:020D2900F322B3
:100D2B00BC000BBE0029EF8DF084FFADF022E4CCAC
:100D3B00F875F008EF2FFFEE33FEEC33FCEE9DEC75
:100D4B00984005FCEE9DFE0FD5F0E9E4CEFD22EDBB
:100D5B00F8F5F0EE8420D21CFEADF075F008EF2F05
:100D6B00FFED33FD4007985006D5F0F222C398FDF6
:050D7B000FD5F0EA2293
:100D8000E8600FECC313FCED13FDEE13FEEF13FF51
:030D9000D8F12275
:100D9300E8600FEFC333FFEE33FEED33FDEC33FCBE
:030DA300D8F12262
:00000001FF
