:03000000020925CD
:0C092500787FE4F6D8FD75814302096C70
:0C0AC400010900010A00013E00010B00C6
:030ADA00D2B22273
:060AD100120ADA1209E22C
:030AD700C2B22286
:100A9A00759850438E40538EFE53890F758BB875E7
:070AAA008DFFC2ABD28E22CA
:100AB100438E805389F0758ACD758CD4C28DD28CCA
:030AC100D2A92295
:1009B100120ADA1209E2A2B3E4334543F543E542F0
:1009C100F542E541F541E540F540AF43AE42AD4169
:1009D100FC7801120A2A8F438E428D418C40120A03
:0109E100D73E
:0609E20000007F01DFFEB2
:0109E80022EC
:030023000209E9E6
:1009E900C0E0C0D075D000C000C007309902C299DC
:1009F900309812C298AF090509740C2FF8A6997599
:0E0A09000A01753E00D007D000D0D0D0E032F8
:03000B00020A3DA9
:100A3D00C0E0C0F0C0D0053E050BE50B75F032846B
:100A4D00E5F07008B2CD2099037599A5D0D0D0F0FE
:030A5D00D0E032B4
:100A6000EFFD3395E0FCED64014C700753B2F743A2
:0E0A7000B10822ED4C700643B20853B1F722D4
:040800008D3FAA0777
:10080400E4F543F542F541F540EA3395E04F7025B0
:10081400FBEBFF3395E0FEC3EF941BEE6480948002
:1008240050061209B10B80E9AF43AE42AD41AC4072
:1008340078050208F3E4FBEBFF3395E0FEC3EF9485
:100844001DEE6480948050061209B10B80E9AF4319
:10085400AE42AD41AC407805120A178F438E428DEB
:10086400418C40EAFF3395E0FEEF64014E70047959
:10087400658008EF64024E70027956E925E0F97B41
:1008840007EB3395E0C364809480401C120ADA12AB
:1008940009E2A803E9088002C313D8FC1392B31237
:1008A4000AD71209E21B80D9EAFF3395E0FEEF6410
:1008B400014E703E7B07EB3395E0C3648094804027
:1008C4001E120ADA1209E2A803E53F088003A2E730
:1008D40013D8FB1392B3120AD71209E21B80D71262
:1008E4000AD11209E2AF43AE42AD41AC40780802EE
:1008F4000A2AAF02EF3395E0FEEF64024E70217BCB
:1009040007EB3395E0C36480948040061209B11B61
:1009140080EF120AD11209E2AF43AE42AD41AC40BE
:0109240022B0
:100A7E00120A9A120AB153B1F353B2F353B1FD53A2
:0C0A8E00B2FD53C9DF43CA20D2AF80FE86
:10093100020A7EE493A3F8E493A34003F68001F254
:1009410008DFF48029E493A3F85407240CC8C333C7
:10095100C4540F4420C8834004F456800146F6DF96
:10096100E4800B0102040810204080900AC4E47E58
:10097100019360BCA3FF543F30E509541FFEE4938B
:10098100A360010ECF54C025E060A840B8E493A352
:10099100FAE493A3F8E493A3C8C582C8CAC583CA7D
:1009A100F0A3C8C582C8CAC583CADFE9DEE780BE35
:010AD0000025
:100A1700E8600FECC313FCED13FDEE13FEEF13FFBD
:030A2700D8F122E1
:100A2A00E8600FEFC333FFEE33FEED33FDEC33FC2A
:030A3A00D8F122CE
:00000001FF
