:03000000020925CD
:0C092500787FE4F6D8FD75815C02096C57
:0A0B1300556172742054657374007C
:0C0B06000122000123000157000124001F
:030B2E00D2B2221E
:060B1D00120B2E120A214A
:030B2300C2B22239
:100AC700759850438E40538EFE53890F758BE8758A
:090AD7008DFFC2ABD2ACD28E221D
:100AE000438E805389F0758ACD758CD4C28DD28C9B
:030AF000D2A92266
:1009F000120B2E120A21A2B3E433450CF50CE50BC1
:100A0000F50BE50AF50AE509F509AF0CAE0BAD0AE1
:100A1000FC78011209DD8F0C8E0B8D0A8C09120BEC
:010A200023B2
:060A210000007F01DFFE72
:010A270022AC
:03002300020A5975
:100A5900C0E0C0D075D000C000C007309904C29969
:100A6900C201309812C298AF22052274252FF8A628
:100A790099752301755700D007D000D0D0D0E03246
:080B26002001FDD2018F99228C
:100A28008B0D8A0E890FAF051DEF3395E0FED3EFCE
:100A38009400EE648094804017AB0D050FE50FAA73
:100A48000E7002050E14F91209B1FF120B2680D69A
:010A5800227B
:03000B00020A895D
:100A8900C0E0C0F0C0D005570524E52475F03284D4
:100A9900E5F07006B2CCF524D200D0D0D0F0D0E089
:010AA900321A
:040800008D08AA07AE
:10080400E4F50CF50BF50AF509EA3395E04F70258C
:10081400FBEBFF3395E0FEC3EF941BEE6480948002
:1008240050061209F00B80E9AF0CAE0BAD0AAC090F
:1008340078050208F3E4FBEBFF3395E0FEC3EF9485
:100844001DEE6480948050061209F00B80E9AF0C11
:10085400AE0BAD0AAC0978051209CA8F0C8E0B8D4C
:100864000A8C09EAFF3395E0FEEF64014E700479C7
:10087400658008EF64024E70027956E925E0F97B41
:1008840007EB3395E0C364809480401C120B2E1256
:100894000A21A803E9088002C313D8FC1392B312F7
:1008A4000B23120A211B80D9EAFF3395E0FEEF6483
:1008B400014E703E7B07EB3395E0C3648094804027
:1008C4001E120B2E120A21A803E508088003A2E7D2
:1008D40013D8FB1392B3120B23120A211B80D712D5
:1008E4000B1D120A21AF0CAE0BAD0AAC097808023D
:1008F40009DDAF02EF3395E0FEEF64024E70217B19
:1009040007EB3395E0C36480948040061209F01B22
:1009140080EF120B1D120A21AF0CAE0BAD0AAC090D
:0109240022B0
:100AF30053B1F353B2F353B1FC53B2FC53C9CF53C5
:030B0300CACF2234
:100AAA00120AF3120AC7120AE0D2AF3000FDC200DE
:0D0ABA007BFF7A0B79137D09120A2880EE6C
:10093100020AAAE493A3F8E493A34003F68001F228
:1009410008DFF48029E493A3F85407240CC8C333C7
:10095100C4540F4420C8834004F456800146F6DF96
:10096100E4800B0102040810204080900B06E47E15
:10097100019360BCA3FF543F30E509541FFEE4938B
:10098100A360010ECF54C025E060A840B8E493A352
:10099100FAE493A3F8E493A3C8C582C8CAC583CA7D
:1009A100F0A3C8C582C8CAC583CADFE9DEE780BE35
:010B120000E2
:1009B100BB010689828A83E0225002E722BBFE0244
:0909C100E32289828A83E4932277
:1009CA00E8600FECC313FCED13FDEE13FEEF13FF0B
:0309DA00D8F1222F
:1009DD00E8600FEFC333FFEE33FEED33FDEC33FC78
:0309ED00D8F1221C
:00000001FF
