:030000000209B53D
:0C09B500787FE4F6D8FD7581610209FC32
:100B9800012200012300015B00012400C1810457E8
:040BA8000000000049
:100B4100759850438E40538EFE53890F758BE8750F
:0F0B51008DFFC2ABD2ACD28E43B71043B8102287
:100BAD00438E805389F0758ACD758CD4C28DD28CCD
:030BBD00D2A92298
:060BC80000007F01DFFECA
:010BCE002204
:03002300020AEFDF
:100AEF00C0E0C0D075D000C000C007309904C299D3
:100AFF00C202309812C298AF22052274252FF8A691
:100B0F0099752301755B00D007D000D0D0D0E032AB
:080BC0002002FD8F99D20222F0
:100ABE008B0C8A0D890EAF051DEF3395E0FED3EF3B
:100ACE009400EE648094804017AB0C050EE50EAAE0
:100ADE000D7002050D14F9120A41FF120BC080D6DB
:010AEE0022E5
:03000B00020B6085
:100B6000C0E0C0F0C0D0055B0524E52475F03284F8
:0F0B7000E5F07004F524D200D0D0D0F0D0E03200
:03001300020BD607
:060BD600300102D20332DF
:100B1F00EFFD3395E0FCED64014C700943B10843E0
:100B2F00B208D2B322ED4C7008C2B353B1F743B23F
:020B3F0008228A
:040800008D0CAA07AA
:10080400E4F510F50FF50EF50DEA3395E04F705051
:10081400FBEBFF3395E0FEC3EF941BEE6480948002
:100824005031D2B200A2B3E4334510F510E50FF510
:100834000FE50EF50EE50DF50DAF10AE0FAD0EFC88
:100844007801120A6D8F108E0F8D0E8C0DC2B200BE
:100854000B80BEAF10AE0FAD0EAC0D78050209567D
:10086400E4FBEBFF3395E0FEC3EF941DEE6480944C
:10087400805031D2B200A2B3E4334510F510E50F35
:10088400F50FE50EF50EE50DF50DAF10AE0FAD0E3F
:10089400FC7801120A6D8F108E0F8D0E8C0DC2B272
:1008A400000B80BEAF10AE0FAD0EAC0D7805120A72
:1008B4005A8F108E0F8D0E8C0DEAFF3395E0FEEFEC
:1008C40064014E700479658008EF64024E70027909
:1008D40056E4FF120B1F7B06EB3395E0C364809450
:1008E400804016D2B200A803E9088002C313D8FCE2
:1008F4001392B3C2B2001B80DF7F01120B1FD2B26E
:10090400120BC8C2B200EAFF3395E0FEEF64014E59
:100914007043FF120B1F7B07EB3395E0C364809495
:10092400804018D2B200A803E50C088003A2E713A4
:10093400D8FB1392B3C2B2001B80DDD2B2120BC833
:10094400C2B2007F01120B1FAF10AE0FAD0EAC0D83
:100954007808020A6DAF02EF3395E0FEEF64024EB1
:10096400704E7B07EB3395E0C3648094804031D2B2
:10097400B200A2B3E4334510F510E50FF50FE50E10
:10098400F50EE50DF50DAF10AE0FAD0EFC780112AE
:100994000A6D8F108E0F8D0E8C0DC2B2001B80C499
:1009A400D2B2120BC8C2B200AF10AE0FAD0EAC0D76
:0109B4002220
:060BCF0000007F47DFFE7D
:010BD50022FD
:100B7F00C2B253B1FB43B20443B10843B208D2AA85
:090B8F00D28A53C9CF53CACF2208
:0E0A8000120B7F120B41120BADD2AF300329C7
:100A8E00E4F50BF50AF509F508C203C2017D0F7FE7
:100A9E00011208008F0B8E0A8D098C087B007A00DC
:090AAE0079087D04120ABED20190
:070AB7003000D1C20080CD28
:1009C100020A80E493A3F8E493A34003F68001F2C2
:1009D10008DFF48029E493A3F85407240CC8C33337
:1009E100C4540F4420C8834004F456800146F6DF06
:1009F100E4800B0102040810204080900B98E47EF3
:100A0100019360BCA3FF543F30E509541FFEE493FA
:100A1100A360010ECF54C025E060A840B8E493A3C1
:100A2100FAE493A3F8E493A3C8C582C8CAC583CAEC
:100A3100F0A3C8C582C8CAC583CADFE9DEE780BEA4
:010BAC000048
:100A4100BB010689828A83E0225002E722BBFE02B3
:090A5100E32289828A83E49322E6
:100A5A00E8600FECC313FCED13FDEE13FEEF13FF7A
:030A6A00D8F1229E
:100A6D00E8600FEFC333FFEE33FEED33FDEC33FCE7
:030A7D00D8F1228B
:00000001FF
