:0300000002092AC8
:0C092A00787FE4F6D8FD75815C0209714D
:0C0B3100012200012300015700012400F4
:030B4B00D2B22201
:100A2D00120B4B120B2AA2B3E4334510F510E50F50
:100A3D00F50FE50EF50EE50DF50DAF10AE0FAD0E84
:0E0A4D00FC78011209E28F108E0F8D0E8C0DB9
:030A5B00C2B22202
:100ADE00759850438E40538EFE53890F758BE87573
:090AEE008DFFC2ABD2ACD28E2206
:100B0E00438E805389F0758ACD758CD4C28DD28C6C
:030B1E00D2A92237
:090B2100120B4B120B2A120A5BA5
:060B2A0000007F01DFFE68
:010B300022A2
:03002300020A8F3F
:100A8F00C0E0C0D075D000C000C007309904C29933
:100A9F00C201309812C298AF22052274252FF8A6F2
:100AAF0099752301755700D007D000D0D0D0E03210
:080B3E002001FDD2018F992274
:100A5E008B0C8A0D890EAF051DEF3395E0FED3EF9B
:100A6E009400EE648094804017AB0C050EE50EAA40
:100A7E000D7002050D14F91209B6FF120B3E80D649
:010A8E002245
:03000B00020ABF27
:100ABF00C0E0C0F0C0D005570524E52475F032849E
:0F0ACF00E5F07004F524D200D0D0D0F0D0E032A2
:03001300020B4697
:050B4600C2AAD2023238
:040800008D0CAA07AA
:10080400E4F510F50FF50EF50DEA3395E04F702A77
:10081400FBEBFF3395E0FEC3EF941BEE6480948002
:10082400500B120B4B00120A33000B80E4AF10AED6
:100834000FAD0EAC0D78050208F8E4FBEBFF339521
:10084400E0FEC3EF941DEE648094805009120A2DDB
:10085400120B2A0B80E6AF10AE0FAD0EAC0D78056F
:100864001209CF8F108E0F8D0E8C0DEAFF3395E099
:10087400FEEF64014E700479658008EF64024E70E7
:10088400027956E925E0F97B07EB3395E0C36480F0
:100894009480401C120B4B120B2AA803E908800217
:1008A400C313D8FC1392B3120A5B120B2A1B80D910
:1008B400EAFF3395E0FEEF64014E703B7B07EB33B8
:1008C40095E0C364809480401E120B4B120B2AA83F
:1008D40003E50C088003A2E713D8FB1392B3120AB2
:1008E4005B120B2A1B80D7120B21AF10AE0FAD0E7B
:1008F400AC0D78080209E2AF02EF3395E0FEEF6435
:10090400024E70217B07EB3395E0C36480948040F2
:1009140009120A2D120B2A1B80EC120B21AF10AE08
:050924000FAD0EAC0D4B
:0109290022AB
:100AF70043B10C43B20C53B1FC53B2FCD2AAD28A15
:070B070053C9CF53CACF22EE
:0E09F500120AF7120ADE120B0ED2AF30021FEA
:100A0300E4FDFF1208008F0B8E0A8D098C08C202C9
:0F0A13007B007A0079087D04120A5ED2AAB2CC69
:0B0A2200A2B392033000D7C20080D3C3
:040143008000016BCC
:100936000209F5E493A3F8E493A34003F68001F2D9
:1009460008DFF48029E493A3F85407240CC8C333C2
:10095600C4540F4420C8834004F456800146F6DF91
:10096600E4800B0102040810204080900B31E47EE5
:10097600019360BCA3FF543F30E509541FFEE49386
:10098600A360010ECF54C025E060A840B8E493A34D
:10099600FAE493A3F8E493A3C8C582C8CAC583CA78
:1009A600F0A3C8C582C8CAC583CADFE9DEE780BE30
:010B3D0000B7
:1009B600BB010689828A83E0225002E722BBFE023F
:0909C600E32289828A83E4932272
:1009CF00E8600FECC313FCED13FDEE13FEEF13FF06
:0309DF00D8F1222A
:1009E200E8600FEFC333FFEE33FEED33FDEC33FC73
:0309F200D8F12217
:00000001FF
