:03000000020A6A87
:0C0A6A00787FE4F6D8FD758146020AB1E1
:100C5D00013900C101013B00013A00C182043C0091
:060C6D000000000141013E
:100BB700759850438E40538EFE53890F758BE87599
:0F0BC7008DFFC2ABD2ACD28E43B71043B8102211
:100C7400438E805389F0758ACD758CD4C28DD28C05
:030C8400D2A922D0
:060C9C0000007F01DFFEF5
:010CA200222F
:03002300020B6667
:100B6600C0E0C0D075D000C000C007309904C2995B
:100B7600C203309811C298AF39053974242FF8A6EC
:0F0B860099D201753B00D007D000D0D0D0E0321B
:080C94002003FD8F99D2032219
:100B35008B0F8A108911AF051DEF3395E0FED3EFBA
:100B45009400EE648094804017AB0F0511E511AA5F
:100B5500107002051014F9120AF6FF120C9480D6D3
:010B6500226D
:03000B00020BD60F
:100BD600C0E0C0F0C0D0053B053AE53A75F0328476
:0F0BE600E5F07004F53AD200D0D0D0F0D0E03274
:03001300020CA339
:060CA300300202D204320F
:100B9500EFFD3395E0FCED64014C700943B108436A
:100BA500B208D2B322ED4C7008C2B353B1F743B2C9
:020BB500082214
:0D0C8700E4F5C7F5C5F5C675C380F5C422B8
:100BF50075C78075F50C75C5018FC4EEFF8FC3757C
:0B0C0500C65A75C6A500AFC2020C87DE
:100C100075C78075F50C75C5028FC4EEFF8FC38D47
:0B0C2000C275C65A75C6A500020C87FD
:100C2B0075C78075F50C75C5038FC4EEFF8FC37543
:090C3B00C65A75C6A500020C871B
:040800008D0FAA07A7
:10080400E4F513F512F511F510EA3395E04F705045
:10081400FBEBFF3395E0FEC3EF941BEE6480948002
:100824005031D2B200A2B3E4334513F513E512F507
:1008340012E511F511E510F510AF13AE12AD11FC70
:100844007801120B228F138E128D118C10C2B200FC
:100854000B80BEAF13AE12AD11AC10780502095671
:10086400E4FBEBFF3395E0FEC3EF941DEE6480944C
:10087400805031D2B200A2B3E4334513F513E5122C
:10088400F512E511F511E510F510AF13AE12AD1127
:10089400FC7801120B228F138E128D118C10C2B2B0
:1008A400000B80BEAF13AE12AD11AC107805120B65
:1008B4000F8F138E128D118C10EAFF3395E0FEEF2B
:1008C40064014E700479658008EF64024E70027909
:1008D40056E4FF120B957B06EB3395E0C3648094DA
:1008E400804016D2B200A803E9088002C313D8FCE2
:1008F4001392B3C2B2001B80DF7F01120B95D2B2F8
:10090400120C9CC2B200EAFF3395E0FEEF64014E84
:100914007043FF120B957B07EB3395E0C36480941F
:10092400804018D2B200A803E50F088003A2E713A1
:10093400D8FB1392B3C2B2001B80DDD2B2120C9C5E
:10094400C2B2007F01120B95AF13AE12AD11AC1001
:100954007808020B22AF02EF3395E0FEEF64024EFB
:10096400704E7B07EB3395E0C3648094804031D2B2
:10097400B200A2B3E4334513F513E512F512E51101
:10098400F511E510F510AF13AE12AD11FC7801129C
:100994000B228F138E128D118C10C2B2001B80C4D7
:1009A400D2B2120C9CC2B200AF13AE12AD11AC1095
:0109B4002220
:100C4400C2B253B1FB43B20443B10843B208D2AABF
:090C5400D28A53C9CF53CACF2242
:1009B500750800750900750A00120C44120BB71270
:0709C5000C74D2AF30043DB9
:1009CC00E4F50EF50DF50CF50BC204C202AF41EFC8
:1009DC003395E0FEEF64014E7005FD7F028011AF90
:1009EC0041EF3395E0FEEF64024E700FAD257F01B1
:0D09FC001208008F3F8E3E8D3D8C3CD202D4
:100A09003001BDC3E53B94057480948040B2C201B6
:100A1900E4F539E52424FE600F14601114602124E3
:100A290003709D754101809875410280937BFF7A1F
:100A39001F79F98B088A09890A7D07120B3580808D
:100A49007F007E04120C2B7F00120BF5120C947D93
:100A5900127F00120C107F00120BF5120C94020980
:010A6900C9C3
:100A76000209B5E493A3F8E493A34003F68001F2D8
:100A860008DFF48029E493A3F85407240CC8C33381
:100A9600C4540F4420C8834004F456800146F6DF50
:100AA600E4800B0102040810204080900C5DE47E77
:100AB600019360BCA3FF543F30E509541FFEE49345
:100AC600A360010ECF54C025E060A840B8E493A30C
:100AD600FAE493A3F8E493A3C8C582C8CAC583CA37
:100AE600F0A3C8C582C8CAC583CADFE9DEE780BEEF
:010C73000080
:100AF600BB010689828A83E0225002E722BBFE02FE
:090B0600E32289828A83E4932230
:100B0F00E8600FECC313FCED13FDEE13FEEF13FFC4
:030B1F00D8F122E8
:100B2200E8600FEFC333FFEE33FEED33FDEC33FC31
:030B3200D8F122D5
:00000001FF
