:03000000020925CD
:0C092500787FE4F6D8FD75815702096C5C
:0E0B1F0055617274205465737420210D0A0014
:0C0B2D00012200012300015700012400F8
:030B4B00D2B22201
:060B3A00120B4B120A2110
:030B4000C2B2221C
:100AF300759850438E40538EFE53890F758BB8758E
:090B03008DFFC2ABD2ACD28E22F0
:100B0C00438E805389F0758ACD758CD4C28DD28C6E
:030B1C00D2A92239
:1009F000120B4B120A21A2B3E433450CF50CE50BA4
:100A0000F50BE50AF50AE509F509AF0CAE0BAD0AE1
:100A1000FC78011209DD8F0C8E0B8D0A8C09120BEC
:010A20004095
:060A210000007F01DFFE72
:010A270022AC
:03002300020A28A6
:100A2800C0E0C0D075D000C000C007B2CC30990477
:100A3800C299C201309812C298AF22052274252F9C
:100A4800F8A699752301755700D007D000D0D0D0EB
:020A5800E0328A
:080B43002001FDD2018F99226F
:100AB0008B0D8A0E890FAB0DAA0EA90F1209B1601A
:100AC00013050FE50F7002050E14F91209B1FF129C
:050AD0000B4380E2224F
:03000B00020A8A5C
:100A8A00C0E0C0F0C0D005570524E52475F03284D3
:100A9A00E5F0700BF524B2CDD200209902D200D035
:060AAA00D0D0F0D0E032D4
:100AD500EFFD3395E0FCED64014C700753B2F7432D
:0E0AE500B10822ED4C700643B20853B1F7225F
:040800008D08AA07AE
:10080400E4F50CF50BF50AF509EA3395E04F70258C
:10081400FBEBFF3395E0FEC3EF941BEE6480948002
:1008240050061209F00B80E9AF0CAE0BAD0AAC090F
:1008340078050208F3E4FBEBFF3395E0FEC3EF9485
:100844001DEE6480948050061209F00B80E9AF0C11
:10085400AE0BAD0AAC0978051209CA8F0C8E0B8D4C
:100864000A8C09EAFF3395E0FEEF64014E700479C7
:10087400658008EF64024E70027956E925E0F97B41
:1008840007EB3395E0C364809480401C120B4B1239
:100894000A21A803E9088002C313D8FC1392B312F7
:1008A4000B40120A211B80D9EAFF3395E0FEEF6466
:1008B400014E703E7B07EB3395E0C3648094804027
:1008C4001E120B4B120A21A803E508088003A2E7B5
:1008D40013D8FB1392B3120B40120A211B80D712B8
:1008E4000B3A120A21AF0CAE0BAD0AAC0978080220
:1008F40009DDAF02EF3395E0FEEF64024E70217B19
:1009040007EB3395E0C36480948040061209F01B22
:1009140080EF120B3A120A21AF0CAE0BAD0AAC09F0
:0109240022B0
:100A5A00120AF3120B0C53B1F353B2F353B1FD5311
:100A6A00B2FD53C9DF43CA2053C9EF43CA10D2AFFC
:100A7A003000FDC2007BFF7A0B791F120AB080F0AA
:10093100020A5AE493A3F8E493A34003F68001F278
:1009410008DFF48029E493A3F85407240CC8C333C7
:10095100C4540F4420C8834004F456800146F6DF96
:10096100E4800B0102040810204080900B2DE47EEE
:10097100019360BCA3FF543F30E509541FFEE4938B
:10098100A360010ECF54C025E060A840B8E493A352
:10099100FAE493A3F8E493A3C8C582C8CAC583CA7D
:1009A100F0A3C8C582C8CAC583CADFE9DEE780BE35
:010B390000BB
:1009B100BB010689828A83E0225002E722BBFE0244
:0909C100E32289828A83E4932277
:1009CA00E8600FECC313FCED13FDEE13FEEF13FF0B
:0309DA00D8F1222F
:1009DD00E8600FEFC333FFEE33FEED33FDEC33FC78
:0309ED00D8F1221C
:00000001FF
