:0300000002092AC8
:0C092A00787FE4F6D8FD75815C0209714D
:0C0B0D0001220001230001570001240018
:030B2200D2B2222A
:1009F500120B22120B06A2B3E433450CF50CE50BE2
:100A0500F50BE50AF50AE509F509AF0CAE0BAD0ADC
:0E0A1500FC78011209E28F0C8E0B8D0A8C0901
:030A2300C2B2223A
:100AA800759850438E40538EFE53890F758BE875A9
:090AB8008DFFC2ABD2ACD28E223C
:100AD800438E805389F0758ACD758CD4C28DD28CA3
:030AE800D2A9226E
:090AFD00120B22120B06120A234F
:060B060000007F01DFFE8C
:010B0C0022C6
:03002300020A5777
:100A5700C0E0C0D075D000C000C007309904C2996B
:100A6700C201309812C298AF22052274252FF8A62A
:100A770099752301755700D007D000D0D0D0E03248
:080B1A002001FDD2018F992298
:100A26008B0D8A0E890FAF051DEF3395E0FED3EFD0
:100A36009400EE648094804017AB0D050FE50FAA75
:100A46000E7002050E14F91209B6FF120B1A80D6A3
:010A5600227D
:03000B00020A875F
:100A8700C0E0C0F0C0D005570524E52475F03284D6
:100A9700E5F07006B2CCF524D200D0D0D0F0D0E08B
:010AA700321C
:040800008D08AA07AE
:10080400E4F50CF50BF50AF509EA3395E04F702A87
:10081400FBEBFF3395E0FEC3EF941BEE6480948002
:10082400500B120B22001209FB000B80E4AF0CAE3C
:100834000BAD0AAC0978050208F8E4FBEBFF33952D
:10084400E0FEC3EF941DEE6480948050091209F514
:10085400120B060B80E6AF0CAE0BAD0AAC097805A3
:100864001209CF8F0C8E0B8D0A8C09EAFF3395E0A9
:10087400FEEF64014E700479658008EF64024E70E7
:10088400027956E925E0F97B07EB3395E0C36480F0
:100894009480401C120B22120B06A803E908800264
:1008A400C313D8FC1392B3120A23120B061B80D96C
:1008B400EAFF3395E0FEEF64014E703B7B07EB33B8
:1008C40095E0C364809480401E120B22120B06A88C
:1008D40003E508088003A2E713D8FB1392B3120AB6
:1008E40023120B061B80D7120AFDAF0CAE0BAD0A08
:1008F400AC0978080209E2AF02EF3395E0FEEF6439
:10090400024E70217B07EB3395E0C36480948040F2
:10091400091209F5120B061B80EC120AFDAF0CAE8E
:050924000BAD0AAC0957
:0109290022AB
:100AC10053B1F353B2F3D2B2D2B353B1FC53B2FC2C
:070AD10053C9CF53CACF2225
:100AEB00120AC1120AA8120AD8D2AF3000FDC200F6
:020AFB0080F980
:10093600020AEBE493A3F8E493A34003F68001F2E2
:1009460008DFF48029E493A3F85407240CC8C333C2
:10095600C4540F4420C8834004F456800146F6DF91
:10096600E4800B0102040810204080900B0DE47E09
:10097600019360BCA3FF543F30E509541FFEE49386
:10098600A360010ECF54C025E060A840B8E493A34D
:10099600FAE493A3F8E493A3C8C582C8CAC583CA78
:1009A600F0A3C8C582C8CAC583CADFE9DEE780BE30
:010B190000DB
:1009B600BB010689828A83E0225002E722BBFE023F
:0909C600E32289828A83E4932272
:1009CF00E8600FECC313FCED13FDEE13FEEF13FF06
:0309DF00D8F1222A
:1009E200E8600FEFC333FFEE33FEED33FDEC33FC73
:0309F200D8F12217
:00000001FF
