:03000000020919D9
:0C091900787FE4F6D8FD7581410209608A
:090AAB00010800010900013C00F2
:030AB500D2B22298
:030AB800C2B222A5
:100A8100759850438E40538EFE53890F758BE075D8
:070A91008DFEC2ABD28E22E4
:100A9800438E805389F0758ACD758CD4C28DD28CE3
:030AA800D2A922AE
:1009A500120AB51209D6A2B3E4334541F541E54033
:1009B500F540E53FF53FE53EF53EAF41AE40AD3F85
:1009C500FC7801120A508F418E408D3F8C3E120AF1
:0109D500B869
:0609D60000007F01DFFEBE
:0109DC0022F8
:03002300020A0FBF
:100A0F00C0E0C0D075D000C000C007309902C299B5
:100A1F00309812C298AF080508740A2FF8A6997576
:0E0A2F000901753C00D007D000D0D0D0E032D5
:03000B00020ABB2B
:030ABB00053C32C5
:100A6300EFFD3395E0FCED64014C700753B2F7439F
:0E0A7300B10822ED4C700643B20853B1F722D1
:040800008D3DA9077A
:10080400E4F541F540F53FF53EE93395E04F7025B9
:10081400FBEBFF3395E0FEC3EF941BEE6480948002
:1008240050061209A50B80E9AF41AE40AD3FAC3E86
:1008340078050208E8E4FBEBFF3395E0FEC3EF9490
:100844001DEE6480948050061209A50B80E9AF4127
:10085400AE40AD3FAC3E7805120A3D8F418E408DCF
:100864003F8C3EE4FF120A63E9FF3395E0FEEF6438
:10087400014E70047A658008EF64024E70027A5665
:100884007B07EBFF3395E0FEEFF44E6017120AB5D9
:100894001209D6EAA2E692B325E0FA120AB81209BE
:1008A400D61B80DEE9FF3395E0FEEF64014E70371E
:1008B400FF120A637B07EBFF3395E0FEEFF44E6013
:1008C40019120AB51209D6E53DA2E692B3EA25E06B
:1008D400FA120AB81209D61B80DCAF41AE40AD3F14
:1008E400AC3E7808020A50AF01EF3395E0FEEF64A6
:1008F400024E70207F01120A637B07EBFF3395E001
:10090400FEEFF44E60061209A51B80EFAF41AE4026
:04091400AD3FAC3E09
:0109180022BC
:1009DD00120A8175A280120A9853B1F343B20CD258
:1009ED00AFE50964017010C3E53C940574809480F3
:1009FD004005E4F509F50820B3E7E4FDFF12080012
:020A0D0080DF88
:100925000209DDE493A3F8E493A34003F68001F202
:1009350008DFF48029E493A3F85407240CC8C333D3
:10094500C4540F4420C8834004F456800146F6DFA2
:10095500E4800B0102040810204080900AABE47E7D
:10096500019360BCA3FF543F30E509541FFEE49397
:10097500A360010ECF54C025E060A840B8E493A35E
:10098500FAE493A3F8E493A3C8C582C8CAC583CA89
:10099500F0A3C8C582C8CAC583CADFE9DEE780BE41
:010AB4000041
:100A3D00E8600FECC313FCED13FDEE13FEEF13FF97
:030A4D00D8F122BB
:100A5000E8600FEFC333FFEE33FEED33FDEC33FC04
:030A6000D8F122A8
:00000001FF
