:03000000020D945A
:0C0D9400787FE4F6D8FD758146020DDB87
:100F9100013900C101013B00013A00C182043C005A
:060FA10000000001410107
:100EEB00759850438E40538EFE53890F758BE87562
:0F0EFB008DFFC2ABD2ACD28E43B71043B81022DA
:100FA800438E805389F0758ACD758CD4C28DD28CCE
:030FB800D2A92299
:060FD00000007F01DFFEBE
:010FD60022F8
:03002300020E9A30
:100E9A00C0E0C0D075D000C000C007309904C29924
:100EAA00C203309811C298AF39053974242FF8A6B5
:0F0EBA0099D201753B00D007D000D0D0D0E032E4
:080FC8002003FD8F99D20322E2
:100E69008B198A1A891BAF051DEF3395E0FED3EF65
:100E79009400EE648094804017AB19051BE51BAA0A
:100E89001A7002051A14F9120D00FF120FC880D644
:010E99002236
:03000B00020F0AD7
:100F0A00C0E0C0F0C0D0053B053AE53A75F032843E
:0F0F1A00E5F07004F53AD200D0D0D0F0D0E0323C
:03001300020FD702
:060FD700300202D20432D8
:100EC900EFFD3395E0FCED64014C700943B1084333
:100ED900B208D2B322ED4C7008C2B353B1F743B292
:020EE9000822DD
:0D0FBB00E4F5C7F5C5F5C675C380F5C42281
:100F290075C78075F50C75C5018FC4EEFF8FC37544
:0B0F3900C65A75C6A500AFC2020FBB70
:100F440075C78075F50C75C5028FC4EEFF8FC38D10
:0B0F5400C275C65A75C6A500020FBB8F
:100F5F0075C78075F50C75C5038FC4EEFF8FC3750C
:090F6F00C65A75C6A500020FBBAD
:040A00008D19AA079B
:100A0400E4F51DF51CF51BF51AEA3395E04F70501B
:100A1400FBEBFF3395E0FEC3EF941BEE6480948000
:100A24005031D2B200A2B3E433451DF51DE51CF5E7
:100A34001CE51BF51BE51AF51AAF1DAE1CAD1BFC1E
:100A44007801120D818F1D8E1C8D1B8C1AC2B20071
:100A54000B80BEAF1DAE1CAD1BAC1A7805020B5645
:100A6400E4FBEBFF3395E0FEC3EF941DEE6480944A
:100A7400805031D2B200A2B3E433451DF51DE51C0C
:100A8400F51CE51BF51BE51AF51AAF1DAE1CAD1BD5
:100A9400FC7801120D818F1D8E1C8D1B8C1AC2B225
:100AA400000B80BEAF1DAE1CAD1BAC1A7805120D39
:100AB4006E8F1D8E1C8D1B8C1AEAFF3395E0FEEFA2
:100AC40064014E700479658008EF64024E70027907
:100AD40056E4FF120EC97B06EB3395E0C3648094A1
:100AE400804016D2B200A803E9088002C313D8FCE0
:100AF4001392B3C2B2001B80DF7F01120EC9D2B2BF
:100B0400120FD0C2B200EAFF3395E0FEEF64014E4B
:100B14007043FF120EC97B07EB3395E0C3648094E6
:100B2400804018D2B200A803E519088003A2E71395
:100B3400D8FB1392B3C2B2001B80DDD2B2120FD025
:100B4400C2B2007F01120EC9AF1DAE1CAD1BAC1AA0
:100B54007808020D81AF02EF3395E0FEEF64024E98
:100B6400704E7B07EB3395E0C3648094804031D2B0
:100B7400B200A2B3E433451DF51DE51CF51CE51BCD
:100B8400F51BE51AF51AAF1DAE1CAD1BFC7801125E
:100B94000D818F1D8E1C8D1B8C1AC2B2001B80C44C
:100BA400D2B2120FD0C2B200AF1DAE1CAD1BAC1A34
:010BB400221E
:100F7800C2B253B1FB43B20443B10843B208D2AA88
:090F8800D28A53C9CF53CACF220B
:0E0BB500120F78120EEB120FA8D2AF30043DD3
:100BC300E4F515F514F513F512C204C202AF41EFB3
:100BD3003395E0FEEF64014E7005FD7F028011AF97
:100BE30041EF3395E0FEEF64024E700FAD257F01B8
:0D0BF300120A008F3F8E3E8D3D8C3CD202D9
:0E0C00003001BDC3E53B94057480948040B282
:100C0E00751200751300751421E52414B407004005
:100C1E0003020CF8900C3075F003A4C58325F0C5C3
:100C2E008373020C45020C4B020C51020C5B020C3E
:100C3E0083020CBA020CDC754101020CF8754102FC
:100C4E00020CF87BFF7A1F79F97D07805AE4F54094
:100C5E00AF40EF3395E0FEC3EF940AEE64809480CC
:100C6E004003020CF8E42FFFEE3404FEAD40120FE9
:100C7E0044054080DBE4F540AF40EF3395E0FEC322
:100C8E00EF940AEE648094805015E42FFFEE340446
:100C9E00FE120F2974082540F8A607054080D97B5F
:100CAE00007A0079087D0A120E69803EE4F540AFA5
:100CBE0040EF3395E0FEC3EF9408EE6480948050CD
:0E0CCE0029EF7F0025E0FE120F5F054080E158
:100CDC007515008526167BFF7A1F79F97D07120E94
:0C0CEC0020AC15AD16120D198E178F18D4
:050CF800C201E4F53922
:030CFD00020BC027
:1008000000C1814001C0804101C0804100C18140E0
:1008100001C0804100C1814000C1814001C08041D0
:1008200001C0804100C1814000C1814001C08041C0
:1008300000C1814001C0804101C0804100C18140B0
:1008400001C0804100C1814000C1814001C08041A0
:1008500000C1814001C0804101C0804100C1814090
:1008600000C1814001C0804101C0804100C1814080
:1008700001C0804100C1814000C1814001C0804170
:1008800001C0804100C1814000C1814001C0804160
:1008900000C1814001C0804101C0804100C1814050
:1008A00000C1814001C0804101C0804100C1814040
:1008B00001C0804100C1814000C1814001C0804130
:1008C00000C1814001C0804101C0804100C1814020
:1008D00001C0804100C1814000C1814001C0804110
:1008E00001C0804100C1814000C1814001C0804100
:1008F00000C1814001C0804101C0804100C18140F0
:1009000000C0C101C30302C2C60607C705C5C404AF
:10091000CC0C0DCD0FCFCE0E0ACACB0BC90908C81F
:10092000D81819D91BDBDA1A1EDEDF1FDD1D1CDC0F
:1009300014D4D515D71716D6D21213D311D1D0107F
:10094000F03031F133F3F23236F6F737F53534F46F
:100950003CFCFD3DFF3F3EFEFA3A3BFB39F9F838DF
:1009600028E8E929EB2B2AEAEE2E2FEF2DEDEC2CCF
:10097000E42425E527E7E62622E2E323E12120E03F
:10098000A06061A163A3A26266A6A767A56564A42F
:100990006CACAD6DAF6F6EAEAA6A6BAB69A9A8689F
:1009A00078B8B979BB7B7ABABE7E7FBF7DBDBC7C8F
:1009B000B47475B577B7B67672B2B373B17170B0FF
:1009C00050909151935352929656579755959454EF
:1009D0009C5C5D9D5F9F9E5E5A9A9B5B995958985F
:1009E000884849894B8B8A4A4E8E8F4F8D4D4C8C4F
:1009F00044848545874746868242438341818040BF
:080E20008B198A1A891B8D1C35
:100E28007FFF7DFFAE1C151CEE6031AB19051BE57D
:100E38001BAA1A7002051A14F9120D006FFB7A002A
:100E48002400F582EA3408F583E4936DFF74002BDF
:100E5800F582EA3409F583E493FD80C8EFFEEDFFDF
:010E68002267
:100DA000020BB5E493A3F8E493A34003F68001F2A9
:100DB00008DFF48029E493A3F85407240CC8C33354
:100DC000C4540F4420C8834004F456800146F6DF23
:100DD000E4800B0102040810204080900F91E47E13
:100DE000019360BCA3FF543F30E509541FFEE49318
:100DF000A360010ECF54C025E060A840B8E493A3DF
:100E0000FAE493A3F8E493A3C8C582C8CAC583CA09
:100E1000F0A3C8C582C8CAC583CADFE9DEE780BEC1
:010FA7000049
:100D0000BB010689828A83E0225002E722BBFE02F1
:090D1000E32289828A83E4932224
:100D1900BC000BBE0029EF8DF084FFADF022E4CCBE
:100D2900F875F008EF2FFFEE33FEEC33FCEE9DEC87
:100D3900984005FCEE9DFE0FD5F0E9E4CEFD22EDCD
:100D4900F8F5F0EE8420D21CFEADF075F008EF2F17
:100D5900FFED33FD4007985006D5F0F222C398FD08
:050D69000FD5F0EA22A5
:100D6E00E8600FECC313FCED13FDEE13FEEF13FF63
:030D7E00D8F12287
:100D8100E8600FEFC333FFEE33FEED33FDEC33FCD0
:030D9100D8F12274
:00000001FF
