:0300000002092AC8
:0C092A00787FE4F6D8FD75815C0209714D
:0C0B6A00012200012300015700012400BB
:030B7F00D2B222CD
:100A3200120B7F120B63A2B3E4334510F510E50FDE
:100A4200F50FE50EF50EE50DF50DAF10AE0FAD0E7F
:0E0A5200FC78011209E28F108E0F8D0E8C0DB4
:030A6000C2B222FD
:100B2E00759850438E40538EFE53890F758BE87522
:090B3E008DFFC2ABD2ACD28E22B5
:100B4700438E805389F0758ACD758CD4C28DD28C33
:030B5700D2A922FE
:090B5A00120B7F120B63120A60FA
:060B630000007F01DFFE2F
:010B69002269
:03002300020AC509
:100AC500C0E0C0D075D000C000C007309904C299FD
:100AD500C201309812C298AF22052274252FF8A6BC
:100AE50099752301755700D007D000D0D0D0E032DA
:080B77002001FDD2018F99223B
:100A63008B0C8A0D890EAF051DEF3395E0FED3EF96
:100A73009400EE648094804017AB0C050EE50EAA3B
:100A83000D7002050D14F91209B6FF120B7780D60B
:010A93002240
:03000B00020AF5F1
:100AF500C0E0C0F0C0D005570524E52475F0328468
:0F0B0500E5F07004F524D200D0D0D0F0D0E0326B
:03006B00020A94F2
:100A9400C0E0C083C082C0D075D000C00790FD13F1
:100AA400E0131313541F30E00DE054F7F090FD03EE
:100AB400E054F7F0D202D007D0D0D082D083D0E077
:010AC40032FF
:040800008D0CAA07AA
:10080400E4F510F50FF50EF50DEA3395E04F702A77
:10081400FBEBFF3395E0FEC3EF941BEE6480948002
:10082400500B120B7F00120A38000B80E4AF10AE9D
:100834000FAD0EAC0D78050208F8E4FBEBFF339521
:10084400E0FEC3EF941DEE648094805009120A32D6
:10085400120B630B80E6AF10AE0FAD0EAC0D780536
:100864001209CF8F108E0F8D0E8C0DEAFF3395E099
:10087400FEEF64014E700479658008EF64024E70E7
:10088400027956E925E0F97B07EB3395E0C36480F0
:100894009480401C120B7F120B63A803E9088002AA
:1008A400C313D8FC1392B3120A60120B631B80D9D2
:1008B400EAFF3395E0FEEF64014E703B7B07EB33B8
:1008C40095E0C364809480401E120B7F120B63A8D2
:1008D40003E50C088003A2E713D8FB1392B3120AB2
:1008E40060120B631B80D7120B5AAF10AE0FAD0E04
:1008F400AC0D78080209E2AF02EF3395E0FEEF6435
:10090400024E70217B07EB3395E0C36480948040F2
:1009140009120A32120B631B80EC120B5AAF10AE91
:050924000FAD0EAC0D4B
:0109290022AB
:100B140043B10C43B20C90FD03E04408F053B1FC24
:0A0B240053B2FC53C9CF53CACF22CD
:0E09F500120B14120B2E120B47D2AF3002243D
:100A0300E4FDFF1208008F0B8E0A8D098C08C202C9
:100A130090FD03E04408F07B007A0079087D04121E
:040A23000A63B2CCE4
:0B0A2700A2B392033000D2C20080CEC8
:0301430002006B4C
:100936000209F5E493A3F8E493A34003F68001F2D9
:1009460008DFF48029E493A3F85407240CC8C333C2
:10095600C4540F4420C8834004F456800146F6DF91
:10096600E4800B0102040810204080900B6AE47EAC
:10097600019360BCA3FF543F30E509541FFEE49386
:10098600A360010ECF54C025E060A840B8E493A34D
:10099600FAE493A3F8E493A3C8C582C8CAC583CA78
:1009A600F0A3C8C582C8CAC583CADFE9DEE780BE30
:010B7600007E
:1009B600BB010689828A83E0225002E722BBFE023F
:0909C600E32289828A83E4932272
:1009CF00E8600FECC313FCED13FDEE13FEEF13FF06
:0309DF00D8F1222A
:1009E200E8600FEFC333FFEE33FEED33FDEC33FC73
:0309F200D8F12217
:00000001FF
