:03000000020925CD
:0C092500787FE4F6D8FD75815C02096C57
:0C0B6200012200012300015700012400C3
:030B8000D2B222CC
:060B6F00120B80120AB017
:030B7500C2B222E7
:100B3600759850438E40538EFE53890F758BB8754A
:090B46008DFFC2ABD2ACD28E22AD
:100B4F00438E805389F0758ACD758CD4C28DD28C2B
:030B5F00D2A922F6
:100A7F00120B80120AB0A2B3E4334510F510E50F44
:100A8F00F50FE50EF50EE50DF50DAF10AE0FAD0E32
:100A9F00FC7801120A6C8F108E0F8D0E8C0D120BBD
:010AAF0075D1
:060AB00000007F01DFFEE3
:010AB600221D
:03002300020AE8E6
:100AE800C0E0C0D075D000C000C007309904C299DA
:100AF800C201309812C298AF22052274252FF8A699
:100B080099752301755700D007D000D0D0D0E032B6
:080B78002001FDD2018F99223A
:100AB7008B118A128913AF051DEF3395E0FED3EF33
:100AC7009400EE648094804017AB110513E513AAD8
:100AD700127002051214F9120A40FF120B7880D621
:010AE70022EC
:03000B000209B136
:1009B100C0E0C0F0C083C082C0D075D000C001C00B
:1009C10002C003C005C006C00705570524E524750C
:1009D100F03284E5F0700EF524D200FB7A007958EC
:1009E1007D04120AB7D007D006D005D003D002D0BB
:0C09F10001D0D0D082D083D0F0D0E03212
:100B1800EFFD3395E0FCED64014C700753B2F743E9
:0E0B2800B10822ED4C700643B20853B1F7221B
:040800008D0CAA07AA
:10080400E4F510F50FF50EF50DEA3395E04F70257C
:10081400FBEBFF3395E0FEC3EF941BEE6480948002
:100824005006120A7F0B80E9AF10AE0FAD0EAC0D6F
:1008340078050208F3E4FBEBFF3395E0FEC3EF9485
:100844001DEE648094805006120A7F0B80E9AF107D
:10085400AE0FAD0EAC0D7805120A598F108E0F8DA8
:100864000E8C0DEAFF3395E0FEEF64014E700479BF
:10087400658008EF64024E70027956E925E0F97B41
:1008840007EB3395E0C364809480401C120B801204
:100894000AB0A803E9088002C313D8FC1392B31268
:1008A4000B75120AB01B80D9EAFF3395E0FEEF64A2
:1008B400014E703E7B07EB3395E0C3648094804027
:1008C4001E120B80120AB0A803E50C088003A2E7ED
:1008D40013D8FB1392B3120B75120AB01B80D712F4
:1008E4000B6F120AB0AF10AE0FAD0EAC0D7808024C
:1008F4000A6CAF02EF3395E0FEEF64024E70217B89
:1009040007EB3395E0C3648094804006120A7F1B92
:1009140080EF120B6F120AB0AF10AE0FAD0EAC0D1C
:0109240022B0
:1009FD00120B36120B4F53B1F353B2F353B1FC53E9
:100A0D00B2FC53C9CF53CACF53C9FD53CAFDD2AFA0
:030A1D0020B319EA
:100A2000E4FDFF1208008F0B8E0A8D098C087B00F5
:090A30007A0079087D04120AB76E
:070A39003000E1C20080DD86
:100931000209FDE493A3F8E493A34003F68001F2D6
:1009410008DFF48029E493A3F85407240CC8C333C7
:10095100C4540F4420C8834004F456800146F6DF96
:10096100E4800B0102040810204080900B62E47EB9
:10097100019360BCA3FF543F30E509541FFEE4938B
:10098100A360010ECF54C025E060A840B8E493A352
:10099100FAE493A3F8E493A3C8C582C8CAC583CA7D
:1009A100F0A3C8C582C8CAC583CADFE9DEE780BE35
:010B6E000086
:100A4000BB010689828A83E0225002E722BBFE02B4
:090A5000E32289828A83E49322E7
:100A5900E8600FECC313FCED13FDEE13FEEF13FF7B
:030A6900D8F1229F
:100A6C00E8600FEFC333FFEE33FEED33FDEC33FCE8
:030A7C00D8F1228C
:00000001FF
