:030000000209549E
:0C095400787FE4F6D8FD75816102099BF4
:100B4900012200012300015B00012400C181045737
:040B59000000000098
:100AF200759850438E40538EFE53890F758BE8755F
:0F0B02008DFFC2ABD2ACD28E43B71043B81022D6
:100B5E00438E805389F0758ACD758CD4C28DD28C1C
:030B6E00D2A922E7
:100A5B00D2B2120A8AA2B3E4334510F510E50FF5B2
:100A6B000FE50EF50EE50DF50DAF10AE0FAD0EFC4F
:0F0A7B007801120A0C8F108E0F8D0E8C0DC2B2E7
:060A8A0000007F01DFFE09
:010A90002243
:03002300020AC20C
:100AC200C0E0C0D075D000C000C007309904C29900
:100AD200C202309812C298AF22052274252FF8A6BE
:100AE20099752301755B00D007D000D0D0D0E032D9
:080B71002002FD8F99D202223F
:100A91008B0C8A0D890EAF051DEF3395E0FED3EF68
:100AA1009400EE648094804017AB0C050EE50EAA0D
:100AB1000D7002050D14F91209E0FF120B7180D6B9
:010AC1002212
:03000B00020B11D4
:100B1100C0E0C0F0C0D0055B0524E52475F0328447
:0F0B2100E5F07004F524D200D0D0D0F0D0E0324F
:03001300020B805D
:060B8000300102D2033235
:040800008D0CAA07AA
:10080400E4F510F50FF50EF50DEA3395E04F705051
:10081400FBEBFF3395E0FEC3EF941BEE6480948002
:100824005031D2B200A2B3E4334510F510E50FF510
:100834000FE50EF50EE50DF50DAF10AE0FAD0EFC88
:100844007801120A0C8F108E0F8D0E8C0DC2B2001F
:100854000B80BEAF10AE0FAD0EAC0D780502091EB5
:10086400E4FBEBFF3395E0FEC3EF941DEE6480944C
:10087400805006120A5B0B80E9AF10AE0FAD0EACD0
:100884000D78051209F98F108E0F8D0E8C0DEAFF6D
:100894003395E0FEEF64014E700479658008EF64DF
:1008A400024E70027956E925E0F97B07EB3395E0B7
:1008B400C364809480401AD2B2120A8AA803E90859
:1008C4008002C313D8FC1392B3C2B2120A8A1B80EB
:1008D400DBEAFF3395E0FEEF64014E70407B07EBEB
:1008E4003395E0C364809480401CD2B2120A8AA873
:1008F40003E50C088003A2E713D8FB1392B3C2B23A
:10090400120A8A1B80D9D2B2120A8AC2B2120A8A85
:10091400AF10AE0FAD0EAC0D7808020A0CAF02EFAB
:100924003395E0FEEF64024E70257B07EB3395E0D0
:10093400C3648094804006120A5B1B80EFD2B2121B
:0F0944000A8AC2B2120A8AAF10AE0FAD0EAC0D06
:010953002281
:060B790000007F47DFFED3
:010B7F002253
:100B3000C2B253B1FB43B20443B10843B208D2AAD4
:090B4000D28A53C9CF53CACF2257
:0E0A1F00120B30120AF2120B5ED2AF30032718
:100A2D00E4F50BF50AF509F508C203C201FDFF1245
:100A3D0008008F0B8E0A8D098C087B007A007908CF
:070A4D007D04120A91D201A1
:070A54003000D3C20080CF87
:10096000020A1FE493A3F8E493A34003F68001F284
:1009700008DFF48029E493A3F85407240CC8C33398
:10098000C4540F4420C8834004F456800146F6DF67
:10099000E4800B0102040810204080900B49E47EA3
:1009A000019360BCA3FF543F30E509541FFEE4935C
:1009B000A360010ECF54C025E060A840B8E493A323
:1009C000FAE493A3F8E493A3C8C582C8CAC583CA4E
:1009D000F0A3C8C582C8CAC583CADFE9DEE780BE06
:010B5D000097
:1009E000BB010689828A83E0225002E722BBFE0215
:0909F000E32289828A83E4932248
:1009F900E8600FECC313FCED13FDEE13FEEF13FFDC
:030A0900D8F122FF
:100A0C00E8600FEFC333FFEE33FEED33FDEC33FC48
:030A1C00D8F122EC
:00000001FF
